{
  "nonce" : "0x0",
  "timestamp" : "0x58ee40ba",
  "extraData" : "0xf865a00000000000000000000000000000000000000000000000000000000000000000f83f941cac3c202f7a0182338cb79d2c75ecbf01f741ed945bed8bf3b54a92e84fe586472e5897da547cebd494d7da54d3ca919fe1ab500cdc5a0e66a3dbfd18f0c080c0",
  "gasLimit" : "0x1ffffffffffffe",
  "gasUsed" : "0x0",
  "number" : "0x0",
  "difficulty" : "0x0",
  "baseFeePerGas" : "0x0",
  "coinbase" : "0x0000000000000000000000000000000000000000",
  "mixHash" : "0x63746963616c2062797a616e74696e65206661756c7420746f6c6572616e6365",
  "parentHash" : "0x0000000000000000000000000000000000000000000000000000000000000000",
  "config" : {
    "chainId" : 1199,
    "homesteadBlock" : 0,
    "eip150Block" : 0,
    "eip150Hash" : "0x0000000000000000000000000000000000000000000000000000000000000000",
    "eip155Block" : 0,
    "eip158Block" : 0,
    "byzantiumBlock": 0,
    "constantinopleBlock": 0,
    "petersburgBlock": 0,
	"istanbulBlock":0,
	"berlinBlock":0,
	"londonBlock":0,
    "contractSizeLimit" : 2147483647,
    "maxCodeSize": 2147483647,
    "txnSizeLimit": 2147483647,
    "maxCodeSizeConfig": 2147483647,
	"qbft": {
		  "blockperiodseconds": 5,
		  "epochlength": 30000,
		  "requesttimeoutseconds": 10,
		  "validators": [
			"0x1cac3c202f7a0182338cb79d2c75ecbf01f741ed",
			"0x5bed8bf3b54a92e84fe586472e5897da547cebd4",
			"0xd7da54d3ca919fe1ab500cdc5a0e66a3dbfd18f0"
		  ]
	}
  },
  "alloc": {
	    "0xc0A8e4D217eB85b812aeb1226fAb6F588943C2C2": {
            "balance": "0x200000000000000000000000000000000000000000000000000000000000000"
        },
        "0xD1cf9D73a91DE6630c2bb068Ba5fDdF9F0DEac09": {
            "balance": "0x200000000000000000000000000000000000000000000000000000000000000",
            "privatekey": "0x797c13f7235c627f6bd013dc17fff4c12213ab49abcf091f77c83f16db10e90b",
            "derivation": "m/44'/60'/0'/0/0"
        },
        "0xd826E703658FA2CE8D1018D42E637C08d9846A17": {
            "balance": "0x200000000000000000000000000000000000000000000000000000000000000",
            "privatekey": "0x4be84b298ccb944e96befc4f03b943ec13709f6a8e5b5d8595c486dfa88fd254",
            "derivation": "m/44'/60'/1'/0/0"
        },
        "0x247DdfA00415710E0416f8c103b5E6428782C916": {
            "balance": "0x200000000000000000000000000000000000000000000000000000000000000",
            "privatekey": "0xaa682edca26f3e17889d69276e6c6a4fcf1594af97e48f4dc3ac6dbb29e7924b",
            "derivation": "m/44'/60'/2'/0/0"
        },
        "0x500a8704F86C0d9126Dfb949fDC4dc248c228fB4": {
            "balance": "0x200000000000000000000000000000000000000000000000000000000000000",
            "privatekey": "0x45d09c64e4973b16422b31d5e4a1fbf57ae8fd25037566af8bc1d046022d754b",
            "derivation": "m/44'/60'/3'/0/0"
        },
        "0x32d9ad8F398995fFF658E74430749d65E0ee6702": {
            "balance": "0x200000000000000000000000000000000000000000000000000000000000000",
            "privatekey": "0x2f51f2d881e0a6f7f249139a2afe8da084424616d08aa0ce9fb1c960b49f022f",
            "derivation": "m/44'/60'/4'/0/0"
        },
        "0xd32d3f6dA1664C4ee7acae64fEC3661cEa6ee448": {
            "balance": "0x200000000000000000000000000000000000000000000000000000000000000",
            "privatekey": "0x87abeb4c0230ca6fdf42f7d2cb2baa510856e42f039ab7670b13845e45dc3245",
            "derivation": "m/44'/60'/5'/0/0"
        },
        "0x5F6C5F2431CE84f2Fa84deB6B27A1764DB6feB1a": {
            "balance": "0x200000000000000000000000000000000000000000000000000000000000000",
            "privatekey": "0x5f0ad910e681553c9407582f620d9560541fa8b8c4d03e9e2e3caed5eea6a220",
            "derivation": "m/44'/60'/6'/0/0"
        },
        "0x9fCDe74bf5465D5C32a09f158047803a061B3C1B": {
            "balance": "0x200000000000000000000000000000000000000000000000000000000000000",
            "privatekey": "0x76930906e95c96a9be735b0f182184424f450feca5ea71bf743a8c47ea6e2635",
            "derivation": "m/44'/60'/7'/0/0"
        },
        "0xb582703c0a0e2b598f9362A5e5c17Ab6865b0342": {
            "balance": "0x200000000000000000000000000000000000000000000000000000000000000",
            "privatekey": "0x32e90654e141cb4f92dd9fccef100778c112636b20b9017a9ae56be9a8c2c648",
            "derivation": "m/44'/60'/8'/0/0"
        },
        "0x179740E29B1E7b2C61F6004b8d5caD575D6eaa88": {
            "balance": "0x200000000000000000000000000000000000000000000000000000000000000",
            "privatekey": "0x028bf0ee2807cf9a8d22db99f12aea783a2e6b4897c9ddb7557e33291c7d35c5",
            "derivation": "m/44'/60'/9'/0/0"
        },
		"0x47F2c8073Ba2bEe219105b8f4f843896ec0bF54B": {
		  "balance": "1000000000000000000000000000"
		},
		"0xc330cB0Ab6F09eCa6e549df37071999B824f116F": {
		  "balance": "1000000000000000000000000000"
		}
  }
}